:100000000C9463000C948B000C948B000C948B006C
:100010000C948B000C948B000C948B000C948B0034
:100020000C948B000C948B000C948B000C948B0024
:100030000C948B000C948B000C948B000C948B0014
:100040000C946B020C948B000C946D010C94C40006
:100050000C948B000C948B000C948B000C948B00F4
:100060000C948B000C948B0000000008000201002F
:10007000000304070000000000000000BE006F0144
:100080001502AF02410300000000250028002B00EC
:1000900000000000240027002A00040404040404D3
:1000A0000404020202020202030303030303010227
:1000B00004081020408001020408102001020408F6
:1000C0001020F70CC70C11241FBECFEFD8E0DEBF05
:1000D000CDBF11E0A0E0B1E0ECE1FDE102C0059090
:1000E0000D92AC3FB107D9F723E0ACEFB1E001C00E
:1000F0001D92A439B207E1F710E0C2E6D0E004C0D7
:100100002197FE010E94F40DC136D107C9F70E9464
:1001100015070C94810E0C940000CF92DF92EF92A1
:10012000FF920F931F93CF93DF936C017A018B01A2
:10013000C0E0D0E0CE15DF0589F0D8016D918D01CA
:10014000D601ED91FC910190F081E02DC601099559
:10015000892B11F47E0102C02196ECCFC701DF91FB
:10016000CF911F910F91FF90EF90DF90CF90089566
:100170000E94090E8AE592E00E940C0121E0892B81
:1001800009F420E0822F08951F920F920FB60F926C
:1001900011242F933F934F935F936F937F938F938C
:1001A0009F93AF93BF93EF93FF938AE592E00E94F2
:1001B0009F01FF91EF91BF91AF919F918F917F919F
:1001C0006F915F914F913F912F910F900FBE0F90C4
:1001D0001F901895FC01918D828D981761F0828D8A
:1001E000DF01A80FB11D5D968C91928D9F5F9F736B
:1001F000928F90E008958FEF9FEF0895FC01918D0D
:10020000828D981731F0828DE80FF11D858D90E079
:1002100008958FEF9FEF0895FC01918D228D892F16
:1002200090E0805C9F4F821B91098F7399270895FE
:1002300080E090E0892B29F00E94BA0081110C9493
:1002400000000895FC01828D238D8F5F948D99238A
:1002500069F0682F70E0408D042E000C550B641778
:10026000750724F02F5F81E0878F80E0958D9923BB
:1002700069F0622F70E0418D042E000C550B64175D
:10028000750724F081E0878F20E080E0F894828F6A
:10029000238F30E0418D042E000C550B61E02417B4
:1002A00035070CF060E090E0408D042E000C550BFB
:1002B00021E0841795070CF020E02623268F789400
:1002C000089560E070E080E89FE308958EBD00002F
:1002D0000DB407FEFDCF8EB508951F920F920FB695
:1002E0000F9211242F938F939F93EF93FF93E0919D
:1002F0006A02F0916B028081E0917002F0917102CC
:1003000082FD12C09081809173028F5F8F73209164
:100310007402821751F0E0917302F0E0E65AFD4F4B
:10032000958F8093730201C08081FF91EF919F911F
:100330008F912F910F900FBE0F901F901895FC0179
:10034000848DDF01A80FB11DA35ABF4F2C91848D5E
:1003500090E001968F739927848FA689B7892C9393
:10036000A089B1898C9180648C93938D848D98132E
:1003700006C00288F389E02D80818F7D80830895F7
:10038000EF92FF920F931F93CF93DF93EC0181E0E5
:10039000888F9B8D8C8D981305C0E889F9898081A1
:1003A00085FD24C0F62E0B8D10E00F5F1F4F0F73DD
:1003B0001127E02E8C8DE8120CC00FB607FCFACF87
:1003C000E889F989808185FFF5CFCE010E949F01E0
:1003D000F1CF8B8DFE01E80FF11DE35AFF4FF08244
:1003E0000B8FEA89FB898081806207C0EE89FF89D3
:1003F0006083E889F98980818064808381E090E06E
:10040000DF91CF911F910F91FF90EF900895CF93BF
:10041000DF93EC01888D8823C9F0EA89FB8980810C
:1004200085FD05C0A889B9898C9186FD0FC00FB6DE
:1004300007FCF5CF808185FFF2CFA889B9898C911F
:1004400085FFEDCFCE010E949F01E7CFDF91CF91D5
:1004500008958E3008F08E5087702091000190E44E
:10046000299F90011124822B80937C0080917A0037
:10047000806480937A0080917A0086FDFCCF809121
:1004800078002091790090E0922B08953FB7F8947E
:100490008091320290913302A0913402B0913502E2
:1004A00026B5A89B05C02F3F19F00196A11DB11DCF
:1004B0003FBFBA2FA92F982F8827820F911DA11D0A
:1004C000B11DBC01CD0142E0660F771F881F991F47
:1004D0004A95D1F708951F920F920FB60F921124EB
:1004E0002F933F938F939F93AF93BF9380912E024F
:1004F00090912F02A0913002B091310230912D02E3
:1005000023E0230F2D3720F40196A11DB11D05C056
:1005100026E8230F0296A11DB11D20932D02809382
:100520002E0290932F02A0933002B093310280915B
:10053000320290913302A0913402B09135020196BB
:10054000A11DB11D8093320290933302A093340217
:10055000B0933502BF91AF919F918F913F912F91B1
:100560000F900FBE0F901F9018950F931F93CF936E
:10057000DF93EC01062F142F8AA1882339F0F89419
:100580006FEFCE010E940E031AA27894EE81FF81D4
:1005900020819D81909592239083802F0E946601F7
:1005A000812F0E946601EE81FF8180819D81982BC1
:1005B0009083812FDF91CF911F910F910895EF923A
:1005C000FF921F93CF93DF9300D0CDB7DEB77C01AE
:1005D000162F60E8610F2A8349830E943503498101
:1005E0002A81442341F041E050E001C0440F2A95A4
:1005F000EAF7482B08C041E050E001C0440F2A95BB
:10060000EAF740954823612FC7010F900F90DF91C3
:10061000CF911F91FF90EF900C94B5021F93CF9351
:10062000DF93EC01162F8AA181110AC0F89420E013
:1006300041E064E0CE010E94DF0281E08AA3789469
:10064000EE81FF8120819D81909592239083812F5F
:100650000E946601EE81FF8180819D81982B9083AD
:10066000812FDF91CF911F9108951F93CF93DF9337
:10067000EC01162F8AA1882339F0F8946FEFCE0190
:100680000E940E031AA27894EE81FF8120819D8141
:10069000909592239083812F0E9466018FEF0E9494
:1006A0006601EE81FF8120819D81922B9083DF91F5
:1006B000CF911F910895EF92FF921F93CF93DF93F5
:1006C000EC018E8D81110AC0CE010E94220181E0D1
:1006D00090E09B838A8380E090E04CC088898130E1
:1006E00041F467FD08C0E62FF0E0EF5FFE4F108198
:1006F00003C0823009F4162F8F8D81110AC08AA1A0
:10070000882339F01F3F29F0612FCE010E940E038C
:100710002CC08F892B8D022E000C330B280F311D1E
:1007200087FD3A958EE1829F7001839FF00C112422
:100730002E898A8D082E000C990B820F911D27FDA2
:100740009A95E80EF91E4F2D65E0CE010E94B50284
:100750004E2D66E0CE010E94B5021F8E1F3FA1F60E
:100760004FEF67E0CE010E94B502CE010E94220148
:1007700081E090E0DF91CF911F91FF90EF9008957D
:100780000F931F93CF93DF93EC0189A1811103C0D5
:1007900088A181111FC00E9446020A851B852C85F5
:1007A0003D85061717072807390710F081E013C0A9
:1007B00088A1882379F060EACE010E94350388235E
:1007C000A9F386FDF3CF24E040E06CE6CE010E9461
:1007D000DF0219A280E0DF91CF911F910F91089560
:1007E0000F931F93CF93DF931F92CDB7DEB78C018A
:1007F00069830E946B0E6981681741F0C8010F90F0
:10080000DF91CF911F910F910C94730E0F90DF9198
:10081000CF911F910F9108950C946B0E0E94590671
:1008200063E085E00E94230689EB91E00E942106A7
:1008300064E085E00E9423068EEB91E00E94210691
:1008400065E085E00E94230686EC91E00E94210687
:100850008091050290E00E94730681EF91E00E9472
:10086000210666E085E00E9423068FEC91E00E945D
:1008700021066091FF0170E080E090E04AE00E9474
:10088000E0058AED91E00E94210667E085E00E9484
:1008900023068CED91E00E9421068091FE018111DA
:1008A00003C089EE91E002C08EEE91E00E94210625
:1008B00068E085E00E94230683EF91E00C94210616
:1008C0000F931F93CF93DF93C091FD01D0E0269645
:1008D0000091FC0110E00E9459066091FC018C2FF0
:1008E0000E9423066DEF86E392E00E945B03B8014D
:1008F0006F5F7F4F8C2F0E9423066DEF86E392E09F
:100900000E945B03B8016E5F7F4F8091FD010E94E2
:10091000230662EE86E392E00E945B036EED86E3BF
:1009200092E00E945B0365EE86E392E00E945B0327
:100930006CEF86E392E00E945B036CEF86E392E04B
:100940000E945B036CEF86E392E00E945B0369EE1A
:1009500086E392E00E945B036CEF86E392E00E94E4
:100960005B036CEF86E392E00E945B036CEF86E32F
:1009700092E00E945B0364EE86E392E00E945B03D8
:100980006EED86E392E00E945B0363EE86E392E005
:100990000E945B03B8016D5F7F4F8C2F0E9423067E
:1009A0006DEF86E392E00E945B03B8016C5F7F4FBE
:1009B0008C2F0E9423066DEF86E392E00E945B037A
:1009C000B8016B5F7F4F8C2F0E94230661EE86E398
:1009D00092E00E945B03B8016A5F7F4F8C2F0E94F8
:1009E00023066FED86E392E00E945B03DF91CF91D7
:1009F0001F910F910C9461058EE00E942902BC01A9
:100A000090932C0280932B024CE750E0A0E0B2E0E0
:100A1000FA0125913491C901C197681779075CF0F3
:100A20008E599F4F8617970734F09C91953020F48C
:100A30009F5F9C9301C01C924E5F5F4F119682E0B6
:100A4000A530B80729F730932A0220932902089588
:100A5000009769F0FC0101900020E9F73197AF01A0
:100A6000481B590BBC0186E392E00C948D0080E09A
:100A700090E00895FC01A089B18982E08C93A4855F
:100A8000B5851C92A685B7858FEC8C93108EA489B2
:100A9000B58986E08C93A289B3898C9180618C930F
:100AA000A289B3898C9188608C93A289B3898C9137
:100AB00080688C930288F389E02D80818F7D80830C
:100AC000089580915602882381F086E392E00E9487
:100AD000C00381110AC04091470248604093470219
:100AE00060E086E392E00C94B50208951F93CF93E3
:100AF000DF9310915602111102C0D0E026C0C82F1A
:100B000086E392E00E94C003D82F8111F6CFC13056
:100B100069F44091470240644093470260E086E3F5
:100B200092E00E94B502C09345020FC0C23029F77F
:100B3000409147024F7B4093470260E086E392E09A
:100B40000E94B502C0934502D12F8D2FDF91CF9126
:100B50001F91089580915602811102C080E008958E
:100B600086E392E00E94C0038111F8CF60EA86E339
:100B700092E00E94350381FD02C08170089582E0F9
:100B8000089590E0FC01E255FF4F2491FC01E656E8
:100B9000FF4F8491882399F090E0880F991FFC0102
:100BA000E057FF4FA591B491FC01EA57FF4F8591A3
:100BB00094918FB7F894EC91E22BEC938FBF08954A
:100BC0008F929F92AF92BF920F931F93CF93DF9319
:100BD000CDB7DEB7A1970FB6F894DEBF0FBECDBF7D
:100BE00019A2423008F44AE08E010F5D1F4F842E97
:100BF000912CA12CB12CA50194010E94C70DE62FC8
:100C0000B901CA0101501109EA3014F4E05D01C0D4
:100C1000E95CD801EC93232B242B252B61F7C80129
:100C20000E942805A1960FB6F894DEBF0FBECDBF77
:100C3000DF91CF911F910F91BF90AF909F908F90B8
:100C400008950C94280590915602992381F187FF0D
:100C50002BC090914E02890F67FF03C090914F0205
:100C6000690F87FD13C090914E0289177CF467FDD0
:100C70000DC090914F0269174CF4F8948093500284
:100C80006093510281E08093540208C0F8948093ED
:100C90005002609351021092540281E080935502F9
:100CA00078949091540203C067FFDDCFD7CF892F8E
:100CB0000895CF92DF92EF92FF920E9446026B015D
:100CC0007C010E944602DC01CB018C199D09AE0912
:100CD000BF09883E9340A105B10598F3FF90EF90BE
:100CE000DF90CF900895CF92DF92EF92FF92CF9353
:100CF000DF936C01990FEE08FF08F7FE1FC0E0912B
:100D00003602F09137020190F081E02D6DE286E32A
:100D100092E00995EC0166277727CB016C197D09D4
:100D20008E099F094AE00E94E0058C0F9D1FDF910C
:100D3000CF91FF90EF90DF90CF9008954AE0C701E8
:100D4000B601DF91CF91FF90EF90DF90CF900C94A0
:100D5000E00580915602882369F086E392E00E94C4
:100D6000C003811107C024E040E064E086E392E024
:100D70000C94DF0208950F931F93CF93DF9310918C
:100D80005602111102C010E038C0C62FD82F86E3DA
:100D900092E00E94C0038111F6CF40E24D0F909186
:100DA0004A02292F092E000C330B240F311D47FD59
:100DB0003A952034310538F700E10C0F20914B02B1
:100DC000022E000C330B200F311D07FD3A95203207
:100DD0003105C8F6D0934802C0934902490F62E03A
:100DE00086E392E00E94B50280914B02402F480FAB
:100DF00063E086E392E00E94B502812FDF91CF91FC
:100E00001F910F91089580915602882369F086E31F
:100E100092E00E94C003811107C022E041E064E03B
:100E200086E392E00C94DF020895CF93DF9300D025
:100E30001F92CDB7DEB7789484B5826084BD84B547
:100E4000816084BD85B5826085BD85B5816085BDC5
:100E500080916E00816080936E001092810080917D
:100E60008100826080938100809181008160809305
:100E70008100809180008160809380008091B1002A
:100E800084608093B1008091B00081608093B00055
:100E900080917A00846080937A0080917A008260E9
:100EA00080937A0080917A00816080937A008091AB
:100EB0007A00806880937A001092C10083E080936A
:100EC000000187EF92E00E943A051FB7F8948091E5
:100ED0000602811163C084EA90E0FC01249148EB92
:100EE00050E0FA01649130E0220F331F20573F4F4A
:100EF000F901A591B4912C91622309F040C0E2E779
:100F0000F0E02491FA014491FC0194919923B9F104
:100F1000222339F1233091F038F42130A9F0223026
:100F200001F584B58F7D12C0273091F02830A1F0F3
:100F30002430B9F4809180008F7D03C080918000BF
:100F40008F77809380000DC084B58F7784BD09C0F2
:100F50008091B0008F7703C08091B0008F7D809327
:100F6000B000E92FF0E0EE0FFF1FEA57FF4FA59109
:100F7000B4918FB7F8949C91492B4C938FBF8AE022
:100F80000E94C1058CB580618CBD8CB580648CBD20
:100F90008DE00E94C1058BE00E94C1058091060290
:100FA0008F5F809306021FBF8CB58C7F8CBD8DB583
:100FB00081608DBD80913A020E94C10580913A0204
:100FC00090E0FC01E255FF4F249120933B02FC018D
:100FD000E656FF4FE491F0E0EE0FFF1FEA57FF4F98
:100FE000A591B491B0933D02A0933C02EC91E22B09
:100FF000EC9387E092E090933F0280933E028CB5A1
:101000008F7D8CBD80915602811113C081E0809349
:10101000560260EA86E392E00E9435038823C9F312
:1010200060EA86E392E00E94350386FDF9CF1092D4
:101030005702F0905602F11002C0F12C4CC086E32A
:1010400092E00E94C0038111F8CF0E94AA0581118D
:1010500002C080914502813019F490E12EE004C075
:10106000823059F79DE02CE0921B092F0170F9E0C6
:101070000F9F80011124E92EE6940115110519F046
:1010800002511109E39410924A0240914802405ED5
:1010900062E086E392E029830E94B50282E08093B9
:1010A0004C028AE180934E0200934B024091490228
:1010B000405F400F63E086E392E00E94B502E09259
:1010C0004D02298120934F0210925002109251023A
:1010D00081E08093540224E040E06CE686E392E0F5
:1010E0000E94DF02F092540280915602882361F040
:1010F00086E392E00E94C003811106C04DE26CE0DD
:1011000086E392E00E94B5020E94AA05811101C007
:1011100081E00E9476050E94610580915602882335
:1011200019F082E08093460210925202109253020C
:1011300081E090E00E940C048093FD0182E090E049
:101140000E940C048093FC0183E090E00E940C0458
:1011500090E0909326028093250284E090E00E9424
:101160000C0490E090932802809327028AE592E095
:101170000E943A05109224021092230285E090E02A
:101180000E940C0491E0811101C090E0909305024F
:1011900087E090E00E940C0491E0811101C090E092
:1011A0009093FE0186E090E00E940C048093FF0182
:1011B00083E4482E82E0582E612C712C9CE2292E6B
:1011C0003324339480915602811101C0FFCF86E30E
:1011D00092E00E94C0038111F5CF60EA86E392E0BD
:1011E0000E94350384FDEECF909105028091560256
:1011F000992359F08823C1F086E392E00E94C0034E
:10120000811112C023E041E00AC0882369F086E31F
:1012100092E00E94C003811107C023E040E064E037
:1012200086E392E00E94DF0260912702809125020E
:101230000E94BB0610912402113009F4A5C138F0B8
:10124000123009F49FC2133009F40EC39DC30E94EB
:1012500003070E94600480915602882391F086E380
:1012600092E00E94C00381110CC061E886E392E025
:101270000E943503482F4C6061E086E392E00E94B3
:10128000B5020E94590680E10E942902FC01909358
:1012900022028093210220911D0230911E02409172
:1012A0001F0250912002A5E0B0E00E94E90D6E0FF0
:1012B0007F1F811D911D26E030E040E050E00E943C
:1012C000C70D20931D0230931E0240931F025093BE
:1012D0002002AEEDB3E00E94E90DA30192010E944D
:1012E000C70D2093190230931A0240931B025093AA
:1012F0001C0264E670E0C9010E940E0E362F272FF3
:10130000182F092FE82EF92E4AE066E172E0832FAC
:10131000922F0E94360E4AE063E172E0812F902FF7
:101320000E94360E2AE0E216F10434F430E33093E2
:101330001302105D10931402C0901902D0901A028B
:10134000E0901B02F0901C02C0920F02D09210029B
:10135000E0921102F09212028091FF0181508430DC
:1013600018F083E08093FF01E091FF014E2F50E0E1
:101370005B834A83429DC001439D900D529D900D19
:101380001124A0E0B0E0C816D906EA06FB0640F436
:1013900080930F0290931002A0931102B093120257
:1013A0006A817B8124EA31E0629FA001639F500D36
:1013B000729F500D112460E070E000910F021091B7
:1013C000100220911102309112024017510762075A
:1013D000730740F440930F02509310026093110280
:1013E0007093120240910F0250911002609111020D
:1013F000709112029A01AB01281B390B4A0B5B0B4F
:10140000A4E6B0E00E94E90D38E7E39FF001112463
:101410009F0140E050E00E94C70D49015A0120930E
:101420000E0245E5481518F46EE070E02EC087EB1B
:10143000880D8D3018F48DE090E02EC086EC880D7C
:101440008F3038F4ECE0F0E0F0930D02E0930C0202
:1014500027C085ED880D8F3038F42BE030E03093D5
:101460000D0220930C021CC084EE880D8F3038F4DE
:101470004AE050E050930D0240930C0211C083EFFC
:10148000880D8F3038F469E070E070930D0260933E
:101490000C0206C088E090E090930D0280930C024D
:1014A0000E945906EA81FB812BE331E0E29FC001F3
:1014B000E39F900DF29F900D1124A0E0B0E0809387
:1014C000080290930902A0930A02B0930B028C15B4
:1014D0009D05AE05BF0590F080915602882381F0EE
:1014E00086E392E00E94C00381110AC024E041E03B
:1014F00064E086E392E00E94DF0202C00E94A90637
:101500000E94590660E081E00E9423068091FE015E
:1015100060910C02811115C086E392E00E945B038A
:101520000E94610586E192E00E9421068BE991E02C
:101530000E94210683E192E00E9421068DE991E05C
:1015400010C086E392E00E945B030E946105C50122
:10155000B4017727882799274AE00E94E00580EAAE
:1015600091E00E9421060E94A9060E94FC0480913D
:101570000402843019F481E08093240280912402D3
:10158000882309F468CE00C280912302823009F4D6
:101590005CC028F4882351F0813069F1F5C18330B3
:1015A00009F48EC0843009F4B5C0EEC10E9403076F
:1015B0000E940E0464E084E00E9423066AE186E350
:1015C00092E00E945B030E9461050E94FC048091EE
:1015D0000102843011F4809323028091020284304E
:1015E00019F481E08093230280910402843009F091
:1015F000CBC182E036C10E9403070E940E0465E061
:1016000084E00E9423066AE186E392E00E945B0385
:101610000E9461050E94FC0480910102843011F453
:101620001092230280910202843019F482E08093A8
:10163000230280910402843009F0A6C19091050232
:1016400081E08927809305029FC10E9403070E94C1
:101650000E0466E084E00E9423066AE186E392E0DD
:101660000E945B030E9461050E94FC048091FF01BF
:10167000882321F0182F853008F014E01093FF0123
:1016800080910102843019F481E0809323028091DB
:101690000202843019F483E08093230280910002D7
:1016A000843019F41F5F1093FF018091030284308E
:1016B00009F06AC18091FF0181508093FF0164C1EC
:1016C0000E9403070E940E0467E084E00E94230644
:1016D0006AE186E392E00E945B030E9461050E943A
:1016E000FC0480910102843019F482E0809323028B
:1016F00080910202843011F48093230280910402CD
:10170000843009F041C19091FE0181E089278093E6
:10171000FE013AC10E9403070E940E0468E084E0C3
:101720000E9423066AE186E392E00E945B030E9426
:1017300061050E94FC0480910102843019F483E069
:101740008093230280910202843011F410922302CC
:1017500080910402843009F017C16091050285E090
:1017600090E00E94F0036091FF0186E090E00E940B
:10177000F0036091FE0187E090E00E94F003109278
:10178000240202C10E9403070E94590661E081E021
:101790000E94230687EA91E00E9421066091FD01E4
:1017A00070E080E090E04AE00E94E00561E08AE0BD
:1017B0000E9423068AEA91E00E9421066091FC01C2
:1017C00070E080E090E04AE00E94E0050E94600442
:1017D0000E94FC048091FD01823020F0182F80319E
:1017E00008F01FE01093FD018091FC01882321F097
:1017F000893018F088E001C081E08093FC0190916D
:101800000002943019F41F5F1093FD0190910102C2
:10181000943019F481508093FC018091020284304D
:1018200029F48091FC018F5F8093FC018091030279
:10183000843029F48091FD0181508093FD018091D5
:101840000402843009F0A0C06091FD0181E090E0C5
:101850000E94F0036091FC0182E090E00E94F0039E
:1018600083E08093240290C00E9403070E945906DF
:1018700061E081E00E9423068DEA91E00E9421064A
:1018800080912502909126020E94730661E08AE011
:101890000E94230683EB91E00E942106809127029B
:1018A000909128020E9473060E9460040E94FC042A
:1018B00020912502309126022032310514F02FE1CB
:1018C00030E0203E4FEF340714F420EE3FEF30932A
:1018D00026022093250280912702909128028031D0
:1018E000910514F08FE090E0813F5FEF950714F4CD
:1018F00081EF9FEF9093280280932702409100028E
:10190000443031F42F5F3F4F30932602209325025D
:1019100020910102243029F40197909328028093AA
:10192000270280910202843049F48091270290912D
:101930002802019690932802809327028091030247
:10194000843049F48091250290912602019790936A
:1019500026028093250280910402843079F46091FC
:10196000250283E090E00E94F0036091270284E06A
:1019700090E00E94F00381E08093240260912702AE
:10198000809125020E94BB060E9418011BCC85E8AD
:1019900091E090933702809336028091560288231B
:1019A00029F186E392E00E94C00381111FC0F894E0
:1019B00042E060E086E392E00E94B50281E080931D
:1019C00057020E944602DC01CB0182599F4FAF4F64
:1019D000BF4F8093400290934102A0934202B09384
:1019E00043021092470210925402789408958F9205
:1019F0009F92AF92BF92EF92FF920F931F93CF935C
:101A0000DF93EAE5F2E01382128288EE882E83E00B
:101A1000982EA12CB12C84829582A682B7829FE851
:101A2000E92E91E0F92EF182E08205EC10E01587B5
:101A30000487C4ECD0E0D787C68760EC70E0718B78
:101A4000608B41EC50E0538B428B22EC30E0358BC5
:101A5000248B86EC90E0978B868B118E128E138EE2
:101A6000148EA7EFB2E013961C921E921297149652
:101A70008D929D92AD92BC92179780849184A2849E
:101A8000B38418968D929D92AD92BC921B9711963D
:101A9000FC92EE921D961C930E931C971F96DC935E
:101AA000CE931E9751967C936E93509753965C936A
:101AB0004E93529755963C932E93549757969C93DA
:101AC0008E935697808D58968C935897818D599602
:101AD0008C935997828D5A968C935A97838D5B96E7
:101AE0008C935B97848D5C968C9380E4E7E7F2E0BF
:101AF000A4E1B3E001900D928A95E1F780E4E7EB71
:101B0000F2E0A4E5B3E001900D928A95E1F7C6E317
:101B1000D2E01B821A8285E891E09983888386E06F
:101B20008C831D821F821E82198618860E9446029F
:101B3000DC01CB01805B9C43AF4FBF4F8A879B8703
:101B4000AC87BD8781E08E8792E09F87888B1A8A59
:101B50001B8A1C8A1D8A1E8A1F8A9EE1988F90E12B
:101B6000998F1A8E1B8E198A1C8E1D8E1E8E8F8F3A
:101B700018A289A31AA21BA2DF91CF911F910F91E6
:101B8000FF90EF90BF90AF909F908F900895A1E24B
:101B90001A2EAA1BBB1BFD010DC0AA1FBB1FEE1FE7
:101BA000FF1FA217B307E407F50720F0A21BB30B32
:101BB000E40BF50B661F771F881F991F1A9469F7AE
:101BC00060957095809590959B01AC01BD01CF010A
:101BD00008950E94FA0DA59F900DB49F900DA49FAB
:101BE000800D911D11240895EE0FFF1F0590F491B3
:101BF000E02D0994A29FB001B39FC001A39F700D77
:101C0000811D1124911DB29F700D811D1124911D04
:101C1000089581E090E0F8940C94810E97FB072ED4
:101C200016F4009407D077FD09D00E94220E07FC1D
:101C300005D03EF4909581959F4F089570956195DC
:101C40007F4F0895AA1BBB1B51E107C0AA1FBB1FF2
:101C5000A617B70710F0A61BB70B881F991F5A9538
:101C6000A9F780959095BC01CD010895BB274A3016
:101C700031F4992322F4BDE2909581959F4F0C9405
:101C8000420EBB27FB015527AA27880F991FAA1FC1
:101C9000A41710F0A41B83955051B9F7A05DAA3387
:101CA00008F0A95DA193009779F7B111B193119252
:101CB000CB010C945B0EDC01FC01672F7191772343
:101CC000E1F7329704C07C916D9370836291AE17F7
:101CD000BF07C8F30895F999FECF92BD81BDF89A68
:101CE000992780B50895262FF999FECF1FBA92BD86
:101CF00081BD20BD0FB6F894FA9AF99A0FBE0196ED
:101D0000089510E0C2E6D0E004C0FE010E94F40D88
:0C1D10002196C336D107C9F7F894FFCF25
:101D1C0001000000000000000000000000000000B6
:101D2C0000000000000000000000000000000000A7
:101D3C000000004800000000463F400000454941BB
:101D4C00470A01020304050607080944434A004BED
:101D5C00424C0B0C0D0E0F101112131415161718F4
:101D6C00191A1B1C1D1E1F202122232400000000F9
:101D7C00000025262728292A2B2C2D2E2F303132F6
:101D8C00333435363738393A3B3C3D3E00000000A1
:101D9C0000000000005B038D00610100000000C02A
:101DAC00018D000C01EA00FE0007022E00562000F7
:101DBC0025202020202000583D00593D00586F66FA
:101DCC00663D00596F66663D004D454E5500506F9F
:101DDC007A79636A6100437A61726E79205B00499B
:101DEC006C6F73632043656C200053005374616EF9
:101DFC00204261746572696900205B565D00205B4E
:0C1E0C00255D0057796A7363696500006A
:107800000C94343C0C94513C0C94513C0C94513CE1
:107810000C94513C0C94513C0C94513C0C94513CB4
:107820000C94513C0C94513C0C94513C0C94513CA4
:107830000C94513C0C94513C0C94513C0C94513C94
:107840000C94513C0C94513C0C94513C0C94513C84
:107850000C94513C0C94513C0C94513C0C94513C74
:107860000C94513C0C94513C11241FBECFEFD8E036
:10787000DEBFCDBF11E0A0E0B1E0ECE9FFE702C060
:1078800005900D92A230B107D9F712E0A2E0B1E065
:1078900001C01D92AD30B107E1F70E942D3D0C945F
:1078A000CC3F0C94003C982F959595959595959582
:1078B000905D8F708A307CF0282F295A8091C0000B
:1078C00085FFFCCF9093C6008091C00085FFFCCF60
:1078D0002093C6000895282F205DF0CF982F809127
:1078E000C00085FFFCCF9093C6000895EF92FF92F1
:1078F0000F931F93EE24FF2487018091C00087FD22
:1079000017C00894E11CF11C011D111D81E4E8164B
:1079100082E4F8068FE0080780E0180770F3E09132
:107920000401F091050109958091C00087FFE9CF1E
:107930008091C6001F910F91FF90EF9008950E94D3
:10794000763C982F8091C00085FFFCCF9093C600B5
:1079500091362CF490330CF09053892F089597555D
:10796000892F08951F930E949F3C182F0E949F3CCF
:107970001295107F810F1F9108951F93182F882350
:1079800021F00E94763C1150E1F71F9108951F935A
:10799000182F0E94763C803249F0809103018F5F5E
:1079A000809303018530C1F01F9108958091C0003C
:1079B00085FFFCCF84E18093C6008091C00085FFE5
:1079C000FCCF1093C6008091C00085FFFCCF80E102
:1079D0008093C6001F910895E0910401F091050184
:1079E00009951F9108950E94763C803241F0809164
:1079F00003018F5F80930301853081F008958091AA
:107A0000C00085FFFCCF84E18093C6008091C00058
:107A100085FFFCCF80E18093C6000895E0910401CA
:107A2000F09105010995089540E951E08823A1F0FE
:107A30002D9A28EE33E0FA013197F1F721503040CA
:107A4000D1F72D9828EE33E0FA013197F1F7215064
:107A50003040D1F7815061F708953F924F925F9285
:107A60006F927F928F929F92AF92BF92CF92DF924E
:107A7000EF92FF920F931F93CF93DF93000080E16B
:107A80008093C4001092C50088E18093C10086E015
:107A90008093C2005098589A259A81E00E94143D24
:107AA00024E1F22E9EE1E92E85E9D82E0FE0C02ECA
:107AB00010E1B12EAA24A394B1E49B2EA6E58A2E50
:107AC000F2E57F2EE0E26E2E79E4572E63E5462E36
:107AD00050E5352E0E94763C8033B1F18133B9F107
:107AE000803409F46FC0813409F476C0823409F41B
:107AF00085C0853409F488C0803531F1823521F1A3
:107B0000813511F1853509F485C0863509F48DC0BC
:107B1000843609F496C0843709F403C1853709F423
:107B200072C1863709F466C0809103018F5F80932C
:107B30000301853079F6E0910401F0910501099582
:107B40000E94763C803351F60E94F33CC3CF0E94E2
:107B5000763C803249F78091C00085FFFCCFF092DF
:107B6000C6008091C00085FFFCCF9092C600809136
:107B7000C00085FFFCCF8092C6008091C00085FFC9
:107B8000FCCF7092C6008091C00085FFFCCF609250
:107B9000C6008091C00085FFFCCF5092C600809146
:107BA000C00085FFFCCF4092C6008091C00085FFD9
:107BB000FCCF3092C6008091C00085FFFCCFB09210
:107BC000C60088CF0E94763C863808F4BDCF0E945C
:107BD000763C0E94F33C7ECF0E94763C803809F4CC
:107BE0009CC0813809F40BC1823809F43CC1883942
:107BF00009F48FC080E00E94C73C6CCF84E10E94F2
:107C0000BD3C0E94F33C66CF85E00E94BD3C0E94D3
:107C1000F33C60CF0E94763C809306010E94763C44
:107C2000809307010E94F33C55CF0E94763C80333D
:107C300009F41DC183E00E94BD3C80E00E94C73C66
:107C400049CF0E94763C809309020E94763C809343
:107C5000080280910C028E7F80930C020E94763C79
:107C6000853409F415C18091080290910902892B8D
:107C700089F000E010E00E94763CF801E85FFE4FDA
:107C800080830F5F1F4F80910802909109020817AF
:107C9000190788F30E94763C803209F045CF809125
:107CA0000C0280FF01C16091060170910701660F0F
:107CB000771F7093070160930601A0910802B091AD
:107CC00009021097C9F0E8E0F1E09B01AD014E0F09
:107CD0005F1FF999FECF32BD21BD819180BDFA9A17
:107CE000F99A2F5F3F4FE417F50799F76A0F7B1F4B
:107CF00070930701609306018091C00085FFFCCF5F
:107D0000F092C6008091C00085FFFCCFB092C60003
:107D1000E1CE83E00E94C73CDDCE82E00E94C73CFA
:107D2000D9CE0E94763C809309020E94763C8093D3
:107D300008028091060190910701880F991F909386
:107D40000701809306010E94763C853409F4A6C0A1
:107D500080910C028E7F80930C020E94763C8032D0
:107D600009F0B8CE8091C00085FFFCCFF092C6002C
:107D7000609108027091090261157105B9F140E046
:107D800050E080910C02A82FA170B82FB27011C0E2
:107D9000BB2309F45CC0E0910601F0910701319624
:107DA000F0930701E09306014F5F5F4F46175707B7
:107DB000E8F4AA2369F3F999FECF209106013091E6
:107DC000070132BD21BDF89A90B58091C00085FFB2
:107DD000FCCF9093C6002F5F3F4F30930701209355
:107DE00006014F5F5F4F4617570718F38091C00099
:107DF00085FDE5CE8091C00085FFF8CFE0CE81E023
:107E00000E94C73C67CE0E94763C803209F08CCE3F
:107E10008091C00085FFFCCFF092C6008091C00029
:107E200085FFFCCFE092C6008091C00085FFFCCFAB
:107E3000D092C6008091C00085FFFCCFC092C600E2
:107E40008091C00085FFFCCFB092C60043CEE09188
:107E50000601F091070194918091C00085FFFCCF4D
:107E60009093C6009CCF80E10E94C73C33CE0E9415
:107E7000763C0E94763C182F0E94763C112309F430
:107E800083C0113009F484C08FE00E94C73C22CE29
:107E900080910C02816080930C02E5CE80910C02EF
:107EA000816080930C0259CF809107018823880F4D
:107EB000880B8A2180930B02809106019091070123
:107EC000880F991F90930701809306018091080203
:107ED00080FF09C080910802909109020196909359
:107EE000090280930802F894F999FECF1127E091D6
:107EF0000601F0910701C8E0D1E08091080290915D
:107F00000902103091F40091570001700130D9F34B
:107F100003E000935700E89500915700017001308D
:107F2000D9F301E100935700E89509901990009169
:107F3000570001700130D9F301E000935700E89534
:107F40001395103498F011270091570001700130FB
:107F5000D9F305E000935700E895009157000170B0
:107F60000130D9F301E100935700E895329602976A
:107F700009F0C7CF103011F00296E5CF112480919F
:107F8000C00085FFB9CEBCCE8EE10E94C73CA2CD19
:0C7F900085E90E94C73C9ECDF894FFCF0D
:027F9C00800063
:040000030000780081
:00000001FF
